{
  "_format": "hh-sol-artifact-1",
  "contractName": "MembershipNFT",
  "sourceName": "contracts/MembershipNFT.sol",
  "abi": [
    {
      "inputs": [
        {
          "internalType": "address",
          "name": "initialOwner",
          "type": "address"
        }
      ],
      "stateMutability": "nonpayable",
      "type": "constructor"
    },
    {
      "inputs": [
        {
          "internalType": "address",
          "name": "sender",
          "type": "address"
        },
        {
          "internalType": "uint256",
          "name": "tokenId",
          "type": "uint256"
        },
        {
          "internalType": "address",
          "name": "owner",
          "type": "address"
        }
      ],
      "name": "ERC721IncorrectOwner",
      "type": "error"
    },
    {
      "inputs": [
        {
          "internalType": "address",
          "name": "operator",
          "type": "address"
        },
        {
          "internalType": "uint256",
          "name": "tokenId",
          "type": "uint256"
        }
      ],
      "name": "ERC721InsufficientApproval",
      "type": "error"
    },
    {
      "inputs": [
        {
          "internalType": "address",
          "name": "approver",
          "type": "address"
        }
      ],
      "name": "ERC721InvalidApprover",
      "type": "error"
    },
    {
      "inputs": [
        {
          "internalType": "address",
          "name": "operator",
          "type": "address"
        }
      ],
      "name": "ERC721InvalidOperator",
      "type": "error"
    },
    {
      "inputs": [
        {
          "internalType": "address",
          "name": "owner",
          "type": "address"
        }
      ],
      "name": "ERC721InvalidOwner",
      "type": "error"
    },
    {
      "inputs": [
        {
          "internalType": "address",
          "name": "receiver",
          "type": "address"
        }
      ],
      "name": "ERC721InvalidReceiver",
      "type": "error"
    },
    {
      "inputs": [
        {
          "internalType": "address",
          "name": "sender",
          "type": "address"
        }
      ],
      "name": "ERC721InvalidSender",
      "type": "error"
    },
    {
      "inputs": [
        {
          "internalType": "uint256",
          "name": "tokenId",
          "type": "uint256"
        }
      ],
      "name": "ERC721NonexistentToken",
      "type": "error"
    },
    {
      "inputs": [
        {
          "internalType": "address",
          "name": "owner",
          "type": "address"
        }
      ],
      "name": "OwnableInvalidOwner",
      "type": "error"
    },
    {
      "inputs": [
        {
          "internalType": "address",
          "name": "account",
          "type": "address"
        }
      ],
      "name": "OwnableUnauthorizedAccount",
      "type": "error"
    },
    {
      "anonymous": false,
      "inputs": [
        {
          "indexed": true,
          "internalType": "address",
          "name": "owner",
          "type": "address"
        },
        {
          "indexed": true,
          "internalType": "address",
          "name": "approved",
          "type": "address"
        },
        {
          "indexed": true,
          "internalType": "uint256",
          "name": "tokenId",
          "type": "uint256"
        }
      ],
      "name": "Approval",
      "type": "event"
    },
    {
      "anonymous": false,
      "inputs": [
        {
          "indexed": true,
          "internalType": "address",
          "name": "owner",
          "type": "address"
        },
        {
          "indexed": true,
          "internalType": "address",
          "name": "operator",
          "type": "address"
        },
        {
          "indexed": false,
          "internalType": "bool",
          "name": "approved",
          "type": "bool"
        }
      ],
      "name": "ApprovalForAll",
      "type": "event"
    },
    {
      "anonymous": false,
      "inputs": [
        {
          "indexed": true,
          "internalType": "address",
          "name": "to",
          "type": "address"
        },
        {
          "indexed": false,
          "internalType": "uint256",
          "name": "amount",
          "type": "uint256"
        }
      ],
      "name": "FundsWithdrawn",
      "type": "event"
    },
    {
      "anonymous": false,
      "inputs": [
        {
          "indexed": true,
          "internalType": "address",
          "name": "user",
          "type": "address"
        },
        {
          "indexed": true,
          "internalType": "uint256",
          "name": "tokenId",
          "type": "uint256"
        },
        {
          "indexed": false,
          "internalType": "enum MembershipNFT.MembershipTier",
          "name": "tier",
          "type": "uint8"
        },
        {
          "indexed": false,
          "internalType": "uint256",
          "name": "expiresAt",
          "type": "uint256"
        }
      ],
      "name": "MembershipMinted",
      "type": "event"
    },
    {
      "anonymous": false,
      "inputs": [
        {
          "indexed": true,
          "internalType": "address",
          "name": "previousOwner",
          "type": "address"
        },
        {
          "indexed": true,
          "internalType": "address",
          "name": "newOwner",
          "type": "address"
        }
      ],
      "name": "OwnershipTransferred",
      "type": "event"
    },
    {
      "anonymous": false,
      "inputs": [
        {
          "indexed": false,
          "internalType": "enum MembershipNFT.MembershipTier",
          "name": "tier",
          "type": "uint8"
        },
        {
          "indexed": false,
          "internalType": "uint256",
          "name": "newDuration",
          "type": "uint256"
        }
      ],
      "name": "TierDurationUpdated",
      "type": "event"
    },
    {
      "anonymous": false,
      "inputs": [
        {
          "indexed": false,
          "internalType": "enum MembershipNFT.MembershipTier",
          "name": "tier",
          "type": "uint8"
        },
        {
          "indexed": false,
          "internalType": "uint256",
          "name": "newPrice",
          "type": "uint256"
        }
      ],
      "name": "TierPriceUpdated",
      "type": "event"
    },
    {
      "anonymous": false,
      "inputs": [
        {
          "indexed": true,
          "internalType": "address",
          "name": "from",
          "type": "address"
        },
        {
          "indexed": true,
          "internalType": "address",
          "name": "to",
          "type": "address"
        },
        {
          "indexed": true,
          "internalType": "uint256",
          "name": "tokenId",
          "type": "uint256"
        }
      ],
      "name": "Transfer",
      "type": "event"
    },
    {
      "inputs": [
        {
          "internalType": "address",
          "name": "to",
          "type": "address"
        },
        {
          "internalType": "uint256",
          "name": "tokenId",
          "type": "uint256"
        }
      ],
      "name": "approve",
      "outputs": [],
      "stateMutability": "nonpayable",
      "type": "function"
    },
    {
      "inputs": [
        {
          "internalType": "address",
          "name": "owner",
          "type": "address"
        }
      ],
      "name": "balanceOf",
      "outputs": [
        {
          "internalType": "uint256",
          "name": "",
          "type": "uint256"
        }
      ],
      "stateMutability": "view",
      "type": "function"
    },
    {
      "inputs": [
        {
          "internalType": "uint256",
          "name": "tokenId",
          "type": "uint256"
        }
      ],
      "name": "getApproved",
      "outputs": [
        {
          "internalType": "address",
          "name": "",
          "type": "address"
        }
      ],
      "stateMutability": "view",
      "type": "function"
    },
    {
      "inputs": [
        {
          "internalType": "uint256",
          "name": "tokenId",
          "type": "uint256"
        }
      ],
      "name": "getExpiry",
      "outputs": [
        {
          "internalType": "uint256",
          "name": "",
          "type": "uint256"
        }
      ],
      "stateMutability": "view",
      "type": "function"
    },
    {
      "inputs": [],
      "name": "getTierInfo",
      "outputs": [
        {
          "internalType": "uint256[3]",
          "name": "prices",
          "type": "uint256[3]"
        },
        {
          "internalType": "uint256[3]",
          "name": "durations",
          "type": "uint256[3]"
        }
      ],
      "stateMutability": "view",
      "type": "function"
    },
    {
      "inputs": [
        {
          "internalType": "address",
          "name": "user",
          "type": "address"
        }
      ],
      "name": "hasAccess",
      "outputs": [
        {
          "internalType": "bool",
          "name": "",
          "type": "bool"
        }
      ],
      "stateMutability": "view",
      "type": "function"
    },
    {
      "inputs": [
        {
          "internalType": "address",
          "name": "owner",
          "type": "address"
        },
        {
          "internalType": "address",
          "name": "operator",
          "type": "address"
        }
      ],
      "name": "isApprovedForAll",
      "outputs": [
        {
          "internalType": "bool",
          "name": "",
          "type": "bool"
        }
      ],
      "stateMutability": "view",
      "type": "function"
    },
    {
      "inputs": [
        {
          "internalType": "uint256",
          "name": "",
          "type": "uint256"
        }
      ],
      "name": "membershipExpiry",
      "outputs": [
        {
          "internalType": "uint256",
          "name": "",
          "type": "uint256"
        }
      ],
      "stateMutability": "view",
      "type": "function"
    },
    {
      "inputs": [
        {
          "internalType": "enum MembershipNFT.MembershipTier",
          "name": "tier",
          "type": "uint8"
        }
      ],
      "name": "mintMembership",
      "outputs": [],
      "stateMutability": "payable",
      "type": "function"
    },
    {
      "inputs": [],
      "name": "name",
      "outputs": [
        {
          "internalType": "string",
          "name": "",
          "type": "string"
        }
      ],
      "stateMutability": "view",
      "type": "function"
    },
    {
      "inputs": [],
      "name": "owner",
      "outputs": [
        {
          "internalType": "address",
          "name": "",
          "type": "address"
        }
      ],
      "stateMutability": "view",
      "type": "function"
    },
    {
      "inputs": [
        {
          "internalType": "uint256",
          "name": "tokenId",
          "type": "uint256"
        }
      ],
      "name": "ownerOf",
      "outputs": [
        {
          "internalType": "address",
          "name": "",
          "type": "address"
        }
      ],
      "stateMutability": "view",
      "type": "function"
    },
    {
      "inputs": [],
      "name": "renounceOwnership",
      "outputs": [],
      "stateMutability": "nonpayable",
      "type": "function"
    },
    {
      "inputs": [
        {
          "internalType": "address",
          "name": "from",
          "type": "address"
        },
        {
          "internalType": "address",
          "name": "to",
          "type": "address"
        },
        {
          "internalType": "uint256",
          "name": "tokenId",
          "type": "uint256"
        }
      ],
      "name": "safeTransferFrom",
      "outputs": [],
      "stateMutability": "nonpayable",
      "type": "function"
    },
    {
      "inputs": [
        {
          "internalType": "address",
          "name": "from",
          "type": "address"
        },
        {
          "internalType": "address",
          "name": "to",
          "type": "address"
        },
        {
          "internalType": "uint256",
          "name": "tokenId",
          "type": "uint256"
        },
        {
          "internalType": "bytes",
          "name": "data",
          "type": "bytes"
        }
      ],
      "name": "safeTransferFrom",
      "outputs": [],
      "stateMutability": "nonpayable",
      "type": "function"
    },
    {
      "inputs": [
        {
          "internalType": "address",
          "name": "operator",
          "type": "address"
        },
        {
          "internalType": "bool",
          "name": "approved",
          "type": "bool"
        }
      ],
      "name": "setApprovalForAll",
      "outputs": [],
      "stateMutability": "nonpayable",
      "type": "function"
    },
    {
      "inputs": [
        {
          "internalType": "enum MembershipNFT.MembershipTier",
          "name": "tier",
          "type": "uint8"
        },
        {
          "internalType": "uint256",
          "name": "newDuration",
          "type": "uint256"
        }
      ],
      "name": "setTierDuration",
      "outputs": [],
      "stateMutability": "nonpayable",
      "type": "function"
    },
    {
      "inputs": [
        {
          "internalType": "enum MembershipNFT.MembershipTier",
          "name": "tier",
          "type": "uint8"
        },
        {
          "internalType": "uint256",
          "name": "newPrice",
          "type": "uint256"
        }
      ],
      "name": "setTierPrice",
      "outputs": [],
      "stateMutability": "nonpayable",
      "type": "function"
    },
    {
      "inputs": [
        {
          "internalType": "bytes4",
          "name": "interfaceId",
          "type": "bytes4"
        }
      ],
      "name": "supportsInterface",
      "outputs": [
        {
          "internalType": "bool",
          "name": "",
          "type": "bool"
        }
      ],
      "stateMutability": "view",
      "type": "function"
    },
    {
      "inputs": [],
      "name": "symbol",
      "outputs": [
        {
          "internalType": "string",
          "name": "",
          "type": "string"
        }
      ],
      "stateMutability": "view",
      "type": "function"
    },
    {
      "inputs": [
        {
          "internalType": "enum MembershipNFT.MembershipTier",
          "name": "",
          "type": "uint8"
        }
      ],
      "name": "tierDuration",
      "outputs": [
        {
          "internalType": "uint256",
          "name": "",
          "type": "uint256"
        }
      ],
      "stateMutability": "view",
      "type": "function"
    },
    {
      "inputs": [
        {
          "internalType": "enum MembershipNFT.MembershipTier",
          "name": "",
          "type": "uint8"
        }
      ],
      "name": "tierPrice",
      "outputs": [
        {
          "internalType": "uint256",
          "name": "",
          "type": "uint256"
        }
      ],
      "stateMutability": "view",
      "type": "function"
    },
    {
      "inputs": [
        {
          "internalType": "address",
          "name": "user",
          "type": "address"
        }
      ],
      "name": "timeRemaining",
      "outputs": [
        {
          "internalType": "uint256",
          "name": "",
          "type": "uint256"
        }
      ],
      "stateMutability": "view",
      "type": "function"
    },
    {
      "inputs": [
        {
          "internalType": "uint256",
          "name": "tokenId",
          "type": "uint256"
        }
      ],
      "name": "tokenURI",
      "outputs": [
        {
          "internalType": "string",
          "name": "",
          "type": "string"
        }
      ],
      "stateMutability": "view",
      "type": "function"
    },
    {
      "inputs": [
        {
          "internalType": "address",
          "name": "from",
          "type": "address"
        },
        {
          "internalType": "address",
          "name": "to",
          "type": "address"
        },
        {
          "internalType": "uint256",
          "name": "tokenId",
          "type": "uint256"
        }
      ],
      "name": "transferFrom",
      "outputs": [],
      "stateMutability": "nonpayable",
      "type": "function"
    },
    {
      "inputs": [
        {
          "internalType": "address",
          "name": "newOwner",
          "type": "address"
        }
      ],
      "name": "transferOwnership",
      "outputs": [],
      "stateMutability": "nonpayable",
      "type": "function"
    },
    {
      "inputs": [
        {
          "internalType": "address",
          "name": "",
          "type": "address"
        }
      ],
      "name": "userToTokenId",
      "outputs": [
        {
          "internalType": "uint256",
          "name": "",
          "type": "uint256"
        }
      ],
      "stateMutability": "view",
      "type": "function"
    },
    {
      "inputs": [],
      "name": "withdraw",
      "outputs": [],
      "stateMutability": "nonpayable",
      "type": "function"
    }
  ],
  "bytecode": "0x608060405234801561000f575f80fd5b5060405161204938038061204983398101604081905261002e9161021e565b806040518060400160405280600d81526020016c13595b58995c9cda1a5c139195609a1b815250604051806040016040528060048152602001631353919560e21b815250815f908161008091906102e3565b50600161008d82826102e3565b5050506001600160a01b0381166100bd57604051631e4fbdf760e01b81525f600482015260240160405180910390fd5b6100c6816101cd565b5050600160075562278d007fdf7de25b7f1fd6d0b5205f0e18f1f35bd7b8d84cce336588d184533ce43a6f765562ed4e007f72c6bfb7988af3a1efa6568f02a999bc52252641c659d85961ca3d372b57d5cf556301e133807fa50eece07c7db1631545c0069bd8f5f54d5935e215d59097edf258a44ba9163455600a602052662386f26fc100007f13da86008ba1c6922daee3e07db95305ef49ebced9f5467a0b8613fcc6b343e35566b1a2bc2ec500007fbbc70db1b6c7afd11e79c0fb0051300458f1a3acb8ee9789d9b6b26c61ad9bc75560025f5267011c37937e0800007fbff4442b8ed600beeb8e26b1279a0f0d14c6edfaec26d968ee13c86f7d4c2ba8556103a2565b600680546001600160a01b038381166001600160a01b0319831681179093556040519116919082907f8be0079c531659141344cd1fd0a4f28419497f9722a3daafe3b4186f6b6457e0905f90a35050565b5f6020828403121561022e575f80fd5b81516001600160a01b0381168114610244575f80fd5b9392505050565b634e487b7160e01b5f52604160045260245ffd5b600181811c9082168061027357607f821691505b60208210810361029157634e487b7160e01b5f52602260045260245ffd5b50919050565b601f8211156102de57805f5260205f20601f840160051c810160208510156102bc5750805b601f840160051c820191505b818110156102db575f81556001016102c8565b50505b505050565b81516001600160401b038111156102fc576102fc61024b565b6103108161030a845461025f565b84610297565b602080601f831160018114610343575f841561032c5750858301515b5f19600386901b1c1916600185901b17855561039a565b5f85815260208120601f198616915b8281101561037157888601518255948401946001909101908401610352565b508582101561038e57878501515f19600388901b60f8161c191681555b505060018460011b0185555b505050505050565b611c9a806103af5f395ff3fe6080604052600436106101af575f3560e01c80638b542526116100e7578063c2b62afa11610087578063eb6cc01011610062578063eb6cc010146104cf578063f2fde38b146104f1578063fa6ddb1514610510578063fe87edbe1461053b575f80fd5b8063c2b62afa1461047e578063c87b56dd14610491578063e985e9c5146104b0575f80fd5b806395d89b41116100c257806395d89b4114610401578063a22cb46514610415578063af24b07b14610434578063b88d4fde1461045f575f80fd5b80638b5425261461039a5780638da5cb5b146103c557806395a078e8146103e2575f80fd5b80633f98df72116101525780634c2d34b31161012d5780634c2d34b3146103295780636352211e1461034857806370a0823114610367578063715018a614610386575f80fd5b80633f98df72146102c057806342842e0e146102eb5780634a5c6f8c1461030a575f80fd5b8063095ea7b31161018d578063095ea7b31461023f57806313c726081461026057806323b872dd1461028d5780633ccfd60b146102ac575f80fd5b806301ffc9a7146101b357806306fdde03146101e7578063081812fc14610208575b5f80fd5b3480156101be575f80fd5b506101d26101cd366004611842565b61055a565b60405190151581526020015b60405180910390f35b3480156101f2575f80fd5b506101fb6105ab565b6040516101de919061188b565b348015610213575f80fd5b5061022761022236600461189d565b61063a565b6040516001600160a01b0390911681526020016101de565b34801561024a575f80fd5b5061025e6102593660046118cf565b610661565b005b34801561026b575f80fd5b5061027f61027a36600461189d565b610670565b6040519081526020016101de565b348015610298575f80fd5b5061025e6102a73660046118f7565b6106f6565b3480156102b7575f80fd5b5061025e61077f565b3480156102cb575f80fd5b5061027f6102da36600461193e565b600b6020525f908152604090205481565b3480156102f6575f80fd5b5061025e6103053660046118f7565b6108e3565b348015610315575f80fd5b5061025e610324366004611957565b610902565b348015610334575f80fd5b5061027f610343366004611971565b61097f565b348015610353575f80fd5b5061022761036236600461189d565b6109d6565b348015610372575f80fd5b5061027f610381366004611971565b6109e0565b348015610391575f80fd5b5061025e610a25565b3480156103a5575f80fd5b5061027f6103b436600461193e565b600a6020525f908152604090205481565b3480156103d0575f80fd5b506006546001600160a01b0316610227565b3480156103ed575f80fd5b506101d26103fc366004611971565b610a38565b34801561040c575f80fd5b506101fb610a9f565b348015610420575f80fd5b5061025e61042f36600461198a565b610aae565b34801561043f575f80fd5b5061027f61044e366004611971565b60096020525f908152604090205481565b34801561046a575f80fd5b5061025e6104793660046119d7565b610ab9565b61025e61048c36600461193e565b610ad1565b34801561049c575f80fd5b506101fb6104ab36600461189d565b610d94565b3480156104bb575f80fd5b506101d26104ca366004611aac565b610e05565b3480156104da575f80fd5b506104e3610e32565b6040516101de929190611aff565b3480156104fc575f80fd5b5061025e61050b366004611971565b610f39565b34801561051b575f80fd5b5061027f61052a36600461189d565b60086020525f908152604090205481565b348015610546575f80fd5b5061025e610555366004611957565b610f76565b5f6001600160e01b031982166380ac58cd60e01b148061058a57506001600160e01b03198216635b5e139f60e01b145b806105a557506301ffc9a760e01b6001600160e01b03198316145b92915050565b60605f80546105b990611b1a565b80601f01602080910402602001604051908101604052809291908181526020018280546105e590611b1a565b80156106305780601f1061060757610100808354040283529160200191610630565b820191905f5260205f20905b81548152906001019060200180831161061357829003601f168201915b5050505050905090565b5f61064482611042565b505f828152600460205260409020546001600160a01b03166105a5565b61066c82823361107a565b5050565b5f818152600260205260408120546001600160a01b03166106e45760405162461bcd60e51b815260206004820152602360248201527f4d656d626572736869704e46543a20546f6b656e20646f6573206e6f742065786044820152621a5cdd60ea1b60648201526084015b60405180910390fd5b505f9081526008602052604090205490565b6001600160a01b03821661071f57604051633250574960e11b81525f60048201526024016106db565b5f61072b838333611087565b9050836001600160a01b0316816001600160a01b031614610779576040516364283d7b60e01b81526001600160a01b03808616600483015260248201849052821660448201526064016106db565b50505050565b6107876110ef565b47806107e15760405162461bcd60e51b815260206004820152602360248201527f4d656d626572736869704e46543a204e6f2066756e647320746f20776974686460448201526272617760e81b60648201526084016106db565b5f6107f46006546001600160a01b031690565b6001600160a01b0316826040515f6040518083038185875af1925050503d805f811461083b576040519150601f19603f3d011682016040523d82523d5f602084013e610840565b606091505b50509050806108915760405162461bcd60e51b815260206004820181905260248201527f4d656d626572736869704e46543a205769746864726177616c206661696c656460448201526064016106db565b6006546001600160a01b03166001600160a01b03167feaff4b37086828766ad3268786972c0cd24259d4c87a80f9d3963a3c3d999b0d836040516108d791815260200190565b60405180910390a25050565b6108fd83838360405180602001604052805f815250610ab9565b505050565b61090a6110ef565b80600a5f84600281111561092057610920611b52565b600281111561093157610931611b52565b81526020019081526020015f20819055507f9b2aeac57e3bc4cc557619887fe04fb4a5d6a7198dc9d52d71c288115f3bf7c78282604051610973929190611b66565b60405180910390a15050565b6001600160a01b0381165f908152600960205260408120548082036109a657505f92915050565b5f818152600860205260409020544281116109c457505f9392505050565b6109ce4282611ba4565b949350505050565b5f6105a582611042565b5f6001600160a01b038216610a0a576040516322718ad960e21b81525f60048201526024016106db565b506001600160a01b03165f9081526003602052604090205490565b610a2d6110ef565b610a365f61111c565b565b6001600160a01b0381165f90815260096020526040812054808203610a5f57505f92915050565b826001600160a01b0316610a72826109d6565b6001600160a01b031614610a8857505f92915050565b5f9081526008602052604090205442111592915050565b6060600180546105b990611b1a565b61066c33838361116d565b610ac48484846106f6565b6107793385858585611234565b335f9081526009602052604090205415610b4b5760405162461bcd60e51b815260206004820152603560248201527f4d656d626572736869704e46543a204164647265737320616c726561647920686044820152741bdb191cc818481b595b58995c9cda1a5c08139195605a1b60648201526084016106db565b600a5f826002811115610b6057610b60611b52565b6002811115610b7157610b71611b52565b81526020019081526020015f2054341015610be95760405162461bcd60e51b815260206004820152603260248201527f4d656d626572736869704e46543a20496e73756666696369656e74204554482060448201527139b2b73a103337b9103a3434b9903a34b2b960711b60648201526084016106db565b600780549081905f610bfa83611bb7565b9190505550610c09338261135c565b5f600b5f846002811115610c1f57610c1f611b52565b6002811115610c3057610c30611b52565b81526020019081526020015f205442610c499190611bcf565b5f83815260086020908152604080832084905533835260099091528120849055909150600a81856002811115610c8157610c81611b52565b6002811115610c9257610c92611b52565b81526020019081526020015f205434610cab9190611ba4565b90508015610d4a576040515f90339083908381818185875af1925050503d805f8114610cf2576040519150601f19603f3d011682016040523d82523d5f602084013e610cf7565b606091505b5050905080610d485760405162461bcd60e51b815260206004820152601c60248201527f4d656d626572736869704e46543a20526566756e64206661696c65640000000060448201526064016106db565b505b82336001600160a01b03167f6e55d1e60f34b9b33d9c2309e5020b4d5246e723e3f8e56c1a293e8d06dddd6b8685604051610d86929190611b66565b60405180910390a350505050565b6060610d9f82611042565b505f610db560408051602081019091525f815290565b90505f815111610dd35760405180602001604052805f815250610dfe565b80610ddd84611375565b604051602001610dee929190611bf9565b6040516020818303038152906040525b9392505050565b6001600160a01b039182165f90815260056020908152604080832093909416825291909152205460ff1690565b610e3a61180f565b610e4261180f565b7f13da86008ba1c6922daee3e07db95305ef49ebced9f5467a0b8613fcc6b343e35482527fbbc70db1b6c7afd11e79c0fb0051300458f1a3acb8ee9789d9b6b26c61ad9bc7546020808401919091527fbff4442b8ed600beeb8e26b1279a0f0d14c6edfaec26d968ee13c86f7d4c2ba8546040808501919091527fdf7de25b7f1fd6d0b5205f0e18f1f35bd7b8d84cce336588d184533ce43a6f765483527f72c6bfb7988af3a1efa6568f02a999bc52252641c659d85961ca3d372b57d5cf548383015260025f52600b9091527fa50eece07c7db1631545c0069bd8f5f54d5935e215d59097edf258a44ba9163454908201529091565b610f416110ef565b6001600160a01b038116610f6a57604051631e4fbdf760e01b81525f60048201526024016106db565b610f738161111c565b50565b610f7e6110ef565b5f8111610fd95760405162461bcd60e51b815260206004820152602360248201527f4d656d626572736869704e46543a204475726174696f6e206d7573742062652060448201526203e20360ec1b60648201526084016106db565b80600b5f846002811115610fef57610fef611b52565b600281111561100057611000611b52565b81526020019081526020015f20819055507f5e883339e3b9ceb6bb705e76144df9206b3b6ed6c6a9e6a36002868356d22f658282604051610973929190611b66565b5f818152600260205260408120546001600160a01b0316806105a557604051637e27328960e01b8152600481018490526024016106db565b6108fd8383836001611405565b5f80611094858585611509565b90506001600160a01b038116156110be576001600160a01b0381165f908152600960205260408120555b6001600160a01b038516156109ce576001600160a01b0385165f908152600960205260409020849055949350505050565b6006546001600160a01b03163314610a365760405163118cdaa760e01b81523360048201526024016106db565b600680546001600160a01b038381166001600160a01b0319831681179093556040519116919082907f8be0079c531659141344cd1fd0a4f28419497f9722a3daafe3b4186f6b6457e0905f90a35050565b6001600160a01b0383166111965760405163a9fbf51f60e01b81525f60048201526024016106db565b6001600160a01b0382166111c857604051630b61174360e31b81526001600160a01b03831660048201526024016106db565b6001600160a01b038381165f81815260056020908152604080832094871680845294825291829020805460ff191686151590811790915591519182527f17307eab39ab6107e8899845ad3d59bd9653f200f220920489ca2b5937696c31910160405180910390a3505050565b6001600160a01b0383163b1561135557604051630a85bd0160e11b81526001600160a01b0384169063150b7a0290611276908890889087908790600401611c0d565b6020604051808303815f875af19250505080156112b0575060408051601f3d908101601f191682019092526112ad91810190611c49565b60015b611317573d8080156112dd576040519150601f19603f3d011682016040523d82523d5f602084013e6112e2565b606091505b5080515f0361130f57604051633250574960e11b81526001600160a01b03851660048201526024016106db565b805160208201fd5b6001600160e01b03198116630a85bd0160e11b1461135357604051633250574960e11b81526001600160a01b03851660048201526024016106db565b505b5050505050565b61066c828260405180602001604052805f8152506115fb565b60605f61138183611612565b60010190505f8167ffffffffffffffff8111156113a0576113a06119c3565b6040519080825280601f01601f1916602001820160405280156113ca576020820181803683370190505b5090508181016020015b5f19016f181899199a1a9b1b9c1cb0b131b232b360811b600a86061a8153600a85049450846113d457509392505050565b808061141957506001600160a01b03821615155b156114da575f61142884611042565b90506001600160a01b038316158015906114545750826001600160a01b0316816001600160a01b031614155b801561146757506114658184610e05565b155b156114905760405163a9fbf51f60e01b81526001600160a01b03841660048201526024016106db565b81156114d85783856001600160a01b0316826001600160a01b03167f8c5be1e5ebec7d5bd14f71427d1e84f3dd0314c0f7b2291e5b200ac8c7c3b92560405160405180910390a45b505b50505f90815260046020526040902080546001600160a01b0319166001600160a01b0392909216919091179055565b5f828152600260205260408120546001600160a01b0390811690831615611535576115358184866116e9565b6001600160a01b0381161561156f576115505f855f80611405565b6001600160a01b0381165f90815260036020526040902080545f190190555b6001600160a01b0385161561159d576001600160a01b0385165f908152600360205260409020805460010190555b5f8481526002602052604080822080546001600160a01b0319166001600160a01b0389811691821790925591518793918516917fddf252ad1be2c89b69c2b068fc378daa952ba7f163c4a11628f55a4df523b3ef91a4949350505050565b611605838361174d565b6108fd335f858585611234565b5f8072184f03e93ff9f4daa797ed6e38ed64bf6a1f0160401b83106116505772184f03e93ff9f4daa797ed6e38ed64bf6a1f0160401b830492506040015b6d04ee2d6d415b85acef8100000000831061167c576d04ee2d6d415b85acef8100000000830492506020015b662386f26fc10000831061169a57662386f26fc10000830492506010015b6305f5e10083106116b2576305f5e100830492506008015b61271083106116c657612710830492506004015b606483106116d8576064830492506002015b600a83106105a55760010192915050565b6116f48383836117ae565b6108fd576001600160a01b03831661172257604051637e27328960e01b8152600481018290526024016106db565b60405163177e802f60e01b81526001600160a01b0383166004820152602481018290526044016106db565b6001600160a01b03821661177657604051633250574960e11b81525f60048201526024016106db565b5f61178283835f611087565b90506001600160a01b038116156108fd576040516339e3563760e11b81525f60048201526024016106db565b5f6001600160a01b038316158015906109ce5750826001600160a01b0316846001600160a01b031614806117e757506117e78484610e05565b806109ce5750505f908152600460205260409020546001600160a01b03908116911614919050565b60405180606001604052806003906020820280368337509192915050565b6001600160e01b031981168114610f73575f80fd5b5f60208284031215611852575f80fd5b8135610dfe8161182d565b5f81518084528060208401602086015e5f602082860101526020601f19601f83011685010191505092915050565b602081525f610dfe602083018461185d565b5f602082840312156118ad575f80fd5b5035919050565b80356001600160a01b03811681146118ca575f80fd5b919050565b5f80604083850312156118e0575f80fd5b6118e9836118b4565b946020939093013593505050565b5f805f60608486031215611909575f80fd5b611912846118b4565b9250611920602085016118b4565b9150604084013590509250925092565b8035600381106118ca575f80fd5b5f6020828403121561194e575f80fd5b610dfe82611930565b5f8060408385031215611968575f80fd5b6118e983611930565b5f60208284031215611981575f80fd5b610dfe826118b4565b5f806040838503121561199b575f80fd5b6119a4836118b4565b9150602083013580151581146119b8575f80fd5b809150509250929050565b634e487b7160e01b5f52604160045260245ffd5b5f805f80608085870312156119ea575f80fd5b6119f3856118b4565b9350611a01602086016118b4565b925060408501359150606085013567ffffffffffffffff80821115611a24575f80fd5b818701915087601f830112611a37575f80fd5b813581811115611a4957611a496119c3565b604051601f8201601f19908116603f01168101908382118183101715611a7157611a716119c3565b816040528281528a6020848701011115611a89575f80fd5b826020860160208301375f60208483010152809550505050505092959194509250565b5f8060408385031215611abd575f80fd5b611ac6836118b4565b9150611ad4602084016118b4565b90509250929050565b805f5b6003811015610779578151845260209384019390910190600101611ae0565b60c08101611b0d8285611add565b610dfe6060830184611add565b600181811c90821680611b2e57607f821691505b602082108103611b4c57634e487b7160e01b5f52602260045260245ffd5b50919050565b634e487b7160e01b5f52602160045260245ffd5b6040810160038410611b8657634e487b7160e01b5f52602160045260245ffd5b9281526020015290565b634e487b7160e01b5f52601160045260245ffd5b818103818111156105a5576105a5611b90565b5f60018201611bc857611bc8611b90565b5060010190565b808201808211156105a5576105a5611b90565b5f81518060208401855e5f93019283525090919050565b5f6109ce611c078386611be2565b84611be2565b6001600160a01b03858116825284166020820152604081018390526080606082018190525f90611c3f9083018461185d565b9695505050505050565b5f60208284031215611c59575f80fd5b8151610dfe8161182d56fea2646970667358221220ab272d9dbc4c4a0638ee1faa875ac59c138cfc07f1db5efe5b203103143def2964736f6c63430008190033",
  "linkReferences": {},
  "deployedLinkReferences": {}
}